{
  "_format": "hh-sol-artifact-1",
  "contractName": "FlashLoanArbitrage",
  "sourceName": "contracts/FlashLoanArbitrage.sol",
  "abi": [
    {
      "inputs": [
        {
          "internalType": "address",
          "name": "_addressProvider",
          "type": "address"
        },
        {
          "internalType": "address",
          "name": "_daiAddr",
          "type": "address"
        },
        {
          "internalType": "address",
          "name": "_usdcAddr",
          "type": "address"
        },
        {
          "internalType": "address",
          "name": "_dexAddr",
          "type": "address"
        }
      ],
      "stateMutability": "nonpayable",
      "type": "constructor"
    },
    {
      "inputs": [],
      "name": "ADDRESSES_PROVIDER",
      "outputs": [
        {
          "internalType": "contract IPoolAddressesProvider",
          "name": "",
          "type": "address"
        }
      ],
      "stateMutability": "view",
      "type": "function"
    },
    {
      "inputs": [],
      "name": "POOL",
      "outputs": [
        {
          "internalType": "contract IPool",
          "name": "",
          "type": "address"
        }
      ],
      "stateMutability": "view",
      "type": "function"
    },
    {
      "inputs": [],
      "name": "allowanceDAI",
      "outputs": [
        {
          "internalType": "uint256",
          "name": "",
          "type": "uint256"
        }
      ],
      "stateMutability": "view",
      "type": "function"
    },
    {
      "inputs": [],
      "name": "allowanceUSDC",
      "outputs": [
        {
          "internalType": "uint256",
          "name": "",
          "type": "uint256"
        }
      ],
      "stateMutability": "view",
      "type": "function"
    },
    {
      "inputs": [
        {
          "internalType": "uint256",
          "name": "_amount",
          "type": "uint256"
        }
      ],
      "name": "approveDAI",
      "outputs": [
        {
          "internalType": "bool",
          "name": "",
          "type": "bool"
        }
      ],
      "stateMutability": "nonpayable",
      "type": "function"
    },
    {
      "inputs": [
        {
          "internalType": "uint256",
          "name": "_amount",
          "type": "uint256"
        }
      ],
      "name": "approveUSDC",
      "outputs": [
        {
          "internalType": "bool",
          "name": "",
          "type": "bool"
        }
      ],
      "stateMutability": "nonpayable",
      "type": "function"
    },
    {
      "inputs": [
        {
          "internalType": "address",
          "name": "asset",
          "type": "address"
        },
        {
          "internalType": "uint256",
          "name": "amount",
          "type": "uint256"
        },
        {
          "internalType": "uint256",
          "name": "premium",
          "type": "uint256"
        },
        {
          "internalType": "address",
          "name": "initiator",
          "type": "address"
        },
        {
          "internalType": "bytes",
          "name": "params",
          "type": "bytes"
        }
      ],
      "name": "executeOperation",
      "outputs": [
        {
          "internalType": "bool",
          "name": "",
          "type": "bool"
        }
      ],
      "stateMutability": "nonpayable",
      "type": "function"
    },
    {
      "inputs": [
        {
          "internalType": "address",
          "name": "_tokenAddress",
          "type": "address"
        }
      ],
      "name": "getBalance",
      "outputs": [
        {
          "internalType": "uint256",
          "name": "",
          "type": "uint256"
        }
      ],
      "stateMutability": "view",
      "type": "function"
    },
    {
      "inputs": [
        {
          "internalType": "address",
          "name": "_token",
          "type": "address"
        },
        {
          "internalType": "uint256",
          "name": "_amount",
          "type": "uint256"
        }
      ],
      "name": "requestFlashLoan",
      "outputs": [],
      "stateMutability": "nonpayable",
      "type": "function"
    },
    {
      "inputs": [
        {
          "internalType": "address",
          "name": "_tokenAddress",
          "type": "address"
        }
      ],
      "name": "withdraw",
      "outputs": [],
      "stateMutability": "nonpayable",
      "type": "function"
    },
    {
      "stateMutability": "payable",
      "type": "receive"
    }
  ],
  "bytecode": "0x60e060405234801561001057600080fd5b50604051610d68380380610d6883398101604081905261002f91610129565b83806001600160a01b03166080816001600160a01b031681525050806001600160a01b031663026b1d5f6040518163ffffffff1660e01b8152600401602060405180830381865afa158015610088573d6000803e3d6000fd5b505050506040513d601f19601f820116820180604052508101906100ac919061017d565b6001600160a01b0390811660a05260008054336001600160a01b03199182161790915592811660c0819052600180548516968316969096179095556002805484169490911693909317909255600380549091169092179091555061019f9050565b80516001600160a01b038116811461012457600080fd5b919050565b6000806000806080858703121561013f57600080fd5b6101488561010d565b93506101566020860161010d565b92506101646040860161010d565b91506101726060860161010d565b905092959194509250565b60006020828403121561018f57600080fd5b6101988261010d565b9392505050565b60805160a05160c051610b786101f060003960008181610500015281816106f20152818161079701526107ea0152600081816101990152818161044f01526108580152600060b30152610b786000f3fe6080604052600436106100955760003560e01c80637535d246116100595780637535d246146101875780637970f920146101bb5780639787ea13146101d0578063d54ba954146101f0578063f8b2cb4f1461021057600080fd5b80630542975c146100a15780631b11d0ff146100f2578063294028ce1461012257806351cff8d9146101455780635f80a9cf1461016757600080fd5b3661009c57005b600080fd5b3480156100ad57600080fd5b506100d57f000000000000000000000000000000000000000000000000000000000000000081565b6040516001600160a01b0390911681526020015b60405180910390f35b3480156100fe57600080fd5b5061011261010d366004610957565b610230565b60405190151581526020016100e9565b34801561012e57600080fd5b506101376104e0565b6040519081526020016100e9565b34801561015157600080fd5b506101656101603660046109fd565b61057b565b005b34801561017357600080fd5b50610112610182366004610a1f565b6106d8565b34801561019357600080fd5b506100d57f000000000000000000000000000000000000000000000000000000000000000081565b3480156101c757600080fd5b50610137610777565b3480156101dc57600080fd5b506101126101eb366004610a1f565b6107d0565b3480156101fc57600080fd5b5061016561020b366004610a38565b61082a565b34801561021c57600080fd5b5061013761022b3660046109fd565b6108d0565b60035460405163f688bcfb60e01b8152633b9aca0060048201526000916001600160a01b03169063f688bcfb90602401600060405180830381600087803b15801561027a57600080fd5b505af115801561028e573d6000803e3d6000fd5b50505050600360009054906101000a90046001600160a01b03166001600160a01b03166305abf9046040518163ffffffff1660e01b8152600401600060405180830381600087803b1580156102e257600080fd5b505af11580156102f6573d6000803e3d6000fd5b50506003546001546040516370a0823160e01b81523060048201526001600160a01b03928316945063365833e193509116906370a0823190602401602060405180830381865afa15801561034e573d6000803e3d6000fd5b505050506040513d601f19601f820116820180604052508101906103729190610a62565b6040518263ffffffff1660e01b815260040161039091815260200190565b600060405180830381600087803b1580156103aa57600080fd5b505af11580156103be573d6000803e3d6000fd5b50505050600360009054906101000a90046001600160a01b03166001600160a01b031663156029916040518163ffffffff1660e01b8152600401600060405180830381600087803b15801561041257600080fd5b505af1158015610426573d6000803e3d6000fd5b50505050600085876104389190610a7b565b60405163095ea7b360e01b81526001600160a01b037f000000000000000000000000000000000000000000000000000000000000000081166004830152602482018390529192509089169063095ea7b3906044016020604051808303816000875af11580156104ab573d6000803e3d6000fd5b505050506040513d601f19601f820116820180604052508101906104cf9190610aa1565b5060019150505b9695505050505050565b600154604051636eb1769f60e11b81523060048201526001600160a01b037f000000000000000000000000000000000000000000000000000000000000000081166024830152600092169063dd62ed3e906044015b602060405180830381865afa158015610552573d6000803e3d6000fd5b505050506040513d601f19601f820116820180604052508101906105769190610a62565b905090565b6000546001600160a01b031633146105f05760405162461bcd60e51b815260206004820152602e60248201527f4f6e6c792074686520636f6e7472616374206f776e65722063616e2063616c6c60448201526d103a3434b990333ab731ba34b7b760911b606482015260840160405180910390fd5b6040516370a0823160e01b815230600482015281906001600160a01b0382169063a9059cbb90339083906370a0823190602401602060405180830381865afa158015610640573d6000803e3d6000fd5b505050506040513d601f19601f820116820180604052508101906106649190610a62565b6040516001600160e01b031960e085901b1681526001600160a01b03909216600483015260248201526044016020604051808303816000875af11580156106af573d6000803e3d6000fd5b505050506040513d601f19601f820116820180604052508101906106d39190610aa1565b505050565b60025460405163095ea7b360e01b81526001600160a01b037f00000000000000000000000000000000000000000000000000000000000000008116600483015260248201849052600092169063095ea7b3906044015b6020604051808303816000875af115801561074d573d6000803e3d6000fd5b505050506040513d601f19601f820116820180604052508101906107719190610aa1565b92915050565b600254604051636eb1769f60e11b81523060048201526001600160a01b037f000000000000000000000000000000000000000000000000000000000000000081166024830152600092169063dd62ed3e90604401610535565b60015460405163095ea7b360e01b81526001600160a01b037f00000000000000000000000000000000000000000000000000000000000000008116600483015260248201849052600092169063095ea7b39060440161072e565b60408051602081018252600080825291516310ac2ddf60e21b81523092859285929091906001600160a01b037f000000000000000000000000000000000000000000000000000000000000000016906342b0b77c906108959088908890889088908890600401610ac3565b600060405180830381600087803b1580156108af57600080fd5b505af11580156108c3573d6000803e3d6000fd5b5050505050505050505050565b6040516370a0823160e01b81523060048201526000906001600160a01b038316906370a0823190602401602060405180830381865afa158015610917573d6000803e3d6000fd5b505050506040513d601f19601f820116820180604052508101906107719190610a62565b80356001600160a01b038116811461095257600080fd5b919050565b60008060008060008060a0878903121561097057600080fd5b6109798761093b565b955060208701359450604087013593506109956060880161093b565b9250608087013567ffffffffffffffff808211156109b257600080fd5b818901915089601f8301126109c657600080fd5b8135818111156109d557600080fd5b8a60208285010111156109e757600080fd5b6020830194508093505050509295509295509295565b600060208284031215610a0f57600080fd5b610a188261093b565b9392505050565b600060208284031215610a3157600080fd5b5035919050565b60008060408385031215610a4b57600080fd5b610a548361093b565b946020939093013593505050565b600060208284031215610a7457600080fd5b5051919050565b60008219821115610a9c57634e487b7160e01b600052601160045260246000fd5b500190565b600060208284031215610ab357600080fd5b81518015158114610a1857600080fd5b600060018060a01b03808816835260208188168185015286604085015260a06060850152855191508160a085015260005b82811015610b105786810182015185820160c001528101610af4565b82811115610b2257600060c084870101525b5050601f01601f1916820160c00190506104d6608083018461ffff16905256fea264697066735822122095fc1df06ba278e81eae80373423be1218bf6c705b06c971ed1331c17d6b636264736f6c634300080a0033",
  "linkReferences": {},
  "deployedLinkReferences": {}
}