{
  "_format": "hh-sol-artifact-1",
  "contractName": "Dex",
  "sourceName": "contracts/Dex.sol",
  "abi": [
    {
      "inputs": [
        {
          "internalType": "address",
          "name": "_daiAddr",
          "type": "address"
        },
        {
          "internalType": "address",
          "name": "_usdcAddr",
          "type": "address"
        }
      ],
      "stateMutability": "nonpayable",
      "type": "constructor"
    },
    {
      "inputs": [],
      "name": "buyDAI",
      "outputs": [],
      "stateMutability": "nonpayable",
      "type": "function"
    },
    {
      "inputs": [
        {
          "internalType": "address",
          "name": "",
          "type": "address"
        }
      ],
      "name": "daiBalances",
      "outputs": [
        {
          "internalType": "uint256",
          "name": "",
          "type": "uint256"
        }
      ],
      "stateMutability": "view",
      "type": "function"
    },
    {
      "inputs": [
        {
          "internalType": "uint256",
          "name": "_amount",
          "type": "uint256"
        }
      ],
      "name": "depositDAI",
      "outputs": [],
      "stateMutability": "nonpayable",
      "type": "function"
    },
    {
      "inputs": [
        {
          "internalType": "uint256",
          "name": "_amount",
          "type": "uint256"
        }
      ],
      "name": "depositUSDC",
      "outputs": [],
      "stateMutability": "nonpayable",
      "type": "function"
    },
    {
      "inputs": [
        {
          "internalType": "address",
          "name": "_tokenAddress",
          "type": "address"
        }
      ],
      "name": "getBalance",
      "outputs": [
        {
          "internalType": "uint256",
          "name": "",
          "type": "uint256"
        }
      ],
      "stateMutability": "view",
      "type": "function"
    },
    {
      "inputs": [],
      "name": "owner",
      "outputs": [
        {
          "internalType": "address payable",
          "name": "",
          "type": "address"
        }
      ],
      "stateMutability": "view",
      "type": "function"
    },
    {
      "inputs": [],
      "name": "sellDAI",
      "outputs": [],
      "stateMutability": "nonpayable",
      "type": "function"
    },
    {
      "inputs": [
        {
          "internalType": "address",
          "name": "",
          "type": "address"
        }
      ],
      "name": "usdcBalances",
      "outputs": [
        {
          "internalType": "uint256",
          "name": "",
          "type": "uint256"
        }
      ],
      "stateMutability": "view",
      "type": "function"
    },
    {
      "inputs": [
        {
          "internalType": "address",
          "name": "_tokenAddress",
          "type": "address"
        }
      ],
      "name": "withdraw",
      "outputs": [],
      "stateMutability": "nonpayable",
      "type": "function"
    },
    {
      "stateMutability": "payable",
      "type": "receive"
    }
  ],
  "bytecode": "0x6080604052605a600355606460045534801561001a57600080fd5b5060405161099a38038061099a83398101604081905261003991610091565b600080546001600160a01b03199081163317909155600180546001600160a01b03948516908316179055600280549290931691161790556100c4565b80516001600160a01b038116811461008c57600080fd5b919050565b600080604083850312156100a457600080fd5b6100ad83610075565b91506100bb60208401610075565b90509250929050565b6108c7806100d36000396000f3fe60806040526004361061008a5760003560e01c80638da5cb5b116100595780638da5cb5b14610102578063a99c68c51461013f578063ef0673421461017a578063f688bcfb146101a7578063f8b2cb4f146101c757600080fd5b806305abf9041461009657806315602991146100ad578063365833e1146100c257806351cff8d9146100e257600080fd5b3661009157005b600080fd5b3480156100a257600080fd5b506100ab6101e7565b005b3480156100b957600080fd5b506100ab61029a565b3480156100ce57600080fd5b506100ab6100dd36600461079e565b61030e565b3480156100ee57600080fd5b506100ab6100fd3660046107b7565b610478565b34801561010e57600080fd5b50600054610122906001600160a01b031681565b6040516001600160a01b0390911681526020015b60405180910390f35b34801561014b57600080fd5b5061016c61015a3660046107b7565b60066020526000908152604090205481565b604051908152602001610136565b34801561018657600080fd5b5061016c6101953660046107b7565b60056020526000908152604090205481565b3480156101b357600080fd5b506100ab6101c236600461079e565b6105d1565b3480156101d357600080fd5b5061016c6101e23660046107b7565b61072d565b600354336000908152600660205260408120549091610205916107fd565b61021090606461081f565b61021f9064e8d4a5100061081f565b60015460405163a9059cbb60e01b8152336004820152602481018390529192506001600160a01b03169063a9059cbb906044015b6020604051808303816000875af1158015610272573d6000803e3d6000fd5b505050506040513d601f19601f82011682018060405250810190610296919061083e565b5050565b60045433600090815260056020526040812054909164e8d4a51000916064916102c29161081f565b6102cc91906107fd565b6102d691906107fd565b60025460405163a9059cbb60e01b8152336004820152602481018390529192506001600160a01b03169063a9059cbb90604401610253565b600154604051636eb1769f60e11b81523360048201523060248201526000916001600160a01b03169063dd62ed3e90604401602060405180830381865afa15801561035d573d6000803e3d6000fd5b505050506040513d601f19601f820116820180604052508101906103819190610860565b9050818110156103d45760405162461bcd60e51b8152602060048201526019602482015278436865636b2074686520746f6b656e20616c6c6f77616e636560381b60448201526064015b60405180910390fd5b6001546040516323b872dd60e01b8152336004820152306024820152604481018490526001600160a01b03909116906323b872dd906064016020604051808303816000875af115801561042b573d6000803e3d6000fd5b505050506040513d601f19601f8201168201806040525081019061044f919061083e565b50336000908152600560205260408120805484929061046f908490610879565b90915550505050565b6000546001600160a01b031633146104e95760405162461bcd60e51b815260206004820152602e60248201527f4f6e6c792074686520636f6e7472616374206f776e65722063616e2063616c6c60448201526d103a3434b990333ab731ba34b7b760911b60648201526084016103cb565b6040516370a0823160e01b815230600482015281906001600160a01b0382169063a9059cbb90339083906370a0823190602401602060405180830381865afa158015610539573d6000803e3d6000fd5b505050506040513d601f19601f8201168201806040525081019061055d9190610860565b6040516001600160e01b031960e085901b1681526001600160a01b03909216600483015260248201526044016020604051808303816000875af11580156105a8573d6000803e3d6000fd5b505050506040513d601f19601f820116820180604052508101906105cc919061083e565b505050565b600254604051636eb1769f60e11b81523360048201523060248201526000916001600160a01b03169063dd62ed3e90604401602060405180830381865afa158015610620573d6000803e3d6000fd5b505050506040513d601f19601f820116820180604052508101906106449190610860565b9050818110156106925760405162461bcd60e51b8152602060048201526019602482015278436865636b2074686520746f6b656e20616c6c6f77616e636560381b60448201526064016103cb565b6002546040516323b872dd60e01b8152336004820152306024820152604481018490526001600160a01b03909116906323b872dd906064016020604051808303816000875af11580156106e9573d6000803e3d6000fd5b505050506040513d601f19601f8201168201806040525081019061070d919061083e565b50336000908152600660205260408120805484929061046f908490610879565b6040516370a0823160e01b81523060048201526000906001600160a01b038316906370a0823190602401602060405180830381865afa158015610774573d6000803e3d6000fd5b505050506040513d601f19601f820116820180604052508101906107989190610860565b92915050565b6000602082840312156107b057600080fd5b5035919050565b6000602082840312156107c957600080fd5b81356001600160a01b03811681146107e057600080fd5b9392505050565b634e487b7160e01b600052601160045260246000fd5b60008261081a57634e487b7160e01b600052601260045260246000fd5b500490565b6000816000190483118215151615610839576108396107e7565b500290565b60006020828403121561085057600080fd5b815180151581146107e057600080fd5b60006020828403121561087257600080fd5b5051919050565b6000821982111561088c5761088c6107e7565b50019056fea26469706673582212202148a70a8df99d731866c1b41f2c5770f55fd8dd8b61f89afed7d3681280ff6864736f6c634300080a0033",
  "linkReferences": {},
  "deployedLinkReferences": {}
}